:02000004C0D06A
:1000000070B58CB0044662B6002C09D00120000205
:100010002168814202D0022004F070F8606803E099
:100020002E48784403F0B6FE27490860274800218F
:100030003C2202F0F5FC02F045FC254D0024B022E4
:100040002846214602F0ECFC01AE304606F0C6FF21
:10005000308580B2002806D01028EFD002F00EFCC8
:1000600000200CB070BD01A802F02FFC02F0D2FEFF
:100070001B48784403F08EFE807801280CD06D4632
:100080002C706C700120A8701648784403F082FE32
:100090000322294603F0C0FE134C7C44204603F0A3
:1000A00079FE00780B490870204603F073FE407813
:1000B00009490870002006F037FD012006F034FDE4
:1000C00000F0F0FD02F08CF8A01A0020641A002065
:1000D0009818002000180020011800201A7D000048
:1000E0004A080100320801002208010070B582B000
:1000F00005781424052D09DC022D17DD032D1BD0F6
:10010000042D1BD0052D1BD1402407E0AC1F032C70
:1001100003D3092D01D00A2D12D18468069D6E46A5
:100120003560746003F0A6FE02B070BD012DF5D0FD
:10013000022D05D11C24F1E72024EFE73024EDE760
:10014000022002F02AFD80B5202303F0C5FE80BD09
:1001500080B50146202028290BDD2C2915DD4129F9
:1001600024DD42292DD061292CD062292BD13820C1
:1001700080BD0A46242910DC213A022A22D32329F1
:1001800009D024291FD1422080BD2A2913DC292926
:1001900001D02A2917D1302080BD253A022A11D357
:1001A000272901D028290ED1282080BD2D2909D04A
:1001B000412907D007E02B2901D02C2903D1402069
:1001C00080BD392080BD022002F0E7FCF0B585B08B
:1001D0001C4615460E4607463878FFF7B9FF0C99BE
:1001E0006A46D1604000083090600B9850600A98D1
:1001F0001060384631462A46234603F0E5FE05B036
:10020000F0BDF0B581B01D4616460C4607460021EC
:100210003C2202F005FC7C607E633D630698B86377
:10022000012038700102204603F06EFE01B0F0BDDF
:1002300010B582B0826A002A1DD0436A197801ACD9
:1002400021705B1C521E43628262427C002A05D0F0
:10025000C268521CC260827C002A09D14068002119
:100260006A46116001AC01232246FFF73FFF217867
:10027000084602B010BD012002F08FFCB0B582B07C
:1002800014460546A86AA0422AD3002905D06A6A06
:1002900008461146224602F0CCFB687C002809D0B3
:1002A000A87C002806D0686A00196862A86A001B4A
:1002B000A86210E06A6A686800216B4619602346EC
:1002C000FFF714FF686A0019697C6862A86A001B5E
:1002D000A862002902D0E8680019E86002B0B0BD49
:1002E000012002F05AFC0000F0B58DB001931646D3
:1002F0000F46054602AC204606F070FE20851249E6
:10030000084204D002A80021018503240AE002A8C3
:1003100002F0DBFA6F62AE620198E862284600F0F4
:1003200015F8044602F03EFC02A9884203D102F00F
:100330003BFC02F0CAFA02A8008D002802D1204638
:100340000DB0F0BD02F029FCFFFF0000F0B585B054
:100350000446274610370830029026461836ADE08E
:1003600002460A3A022A23D3082821D0092800D0BD
:1003700064E13878002800D063E10298006805281D
:1003800000D35EE1E16888420CD9401AA26A824239
:1003900000D30246606B411878312046FFF76EFFAC
:1003A000A068E168814200D088E0616B7C227FE038
:1003B0003878002800D044E1A0682DE0032822D03E
:1003C000042800D03AE13878002800D039E10298BA
:1003D0000068212800D334E1E26890420BD9616BB8
:1003E0008918801AA26A824200D302462046FFF78B
:1003F00045FFA068E268824260D1616B202257E02D
:10040000022800D01AE13878002800D019E10298BB
:100410000068212800D314E1E16888420AD9401A13
:10042000A26A824200D3024600212046FFF726FF3F
:10043000A068E168814241D13BE03878002800D0D3
:10044000FFE002980068212800D3FAE0E1688842C2
:100450000CD9401AA26A824200D30246606B41184E
:1004600021312046FFF70AFFA068E168814225D1CB
:10047000616B41221CE03878002800D0E1E002984E
:100480000068152800D3DCE0E16888420CD9401AE6
:10049000A26A824200D30246606B41186331204653
:1004A000FFF7ECFEA068E168814207D1616B77221B
:1004B00088542078401C207000206074207801E06F
:1004C00003202070C0B20221092807D00C2800D1D7
:1004D000B4E0A06A0021002804D1AFE0A06A00289F
:1004E00000D1A7E0617C002954D10021002800D16F
:1004F000A4E000252046FFF79BFE216A4A1C2262E9
:1005000061180876216A03AA304600F0C9F801286C
:100510000CD103A8027801210523002A084600D047
:100520001846002A00D111460D4305E0226A012039
:100530000021052A00D0084607210140002903D1E7
:10054000A06A0028D6D101E0052920D1E8070021C2
:10055000002873D0216A6846076004AB3046029ACF
:1005600000F0CDF80321012868D10020049900296A
:10057000014606D1616A491E6162A16A491CA162F5
:100580000121A174E06020620120607402E0032177
:10059000002853D1216B002904D02046884701212F
:1005A000002840D120780321022811DC012800D046
:1005B00026E73878002844D0A068606102202070C7
:1005C000002060742C20205CC00700D178E775E71C
:1005D000072800DDC4E6042800DCEFE6052800D18A
:1005E0002BE7062800D146E7072827D138780028CE
:1005F00027D102980068212823D2E16888420CD9CB
:10060000401AA26A824200D30246606B411842310E
:100610002046FFF733FEA068E168814200D04DE735
:10062000616B622244E7012800D147E7022805D028
:10063000032103E0606B7C2200238354C8B205B021
:10064000F0BD012002F0A9FAB0B58CB0044601ADAE
:10065000284606F0C3FC28851049084204D001A8AA
:1006600000210185032406E001A802F02EF92046AE
:10067000FFF76CFE044602F095FA01A9884203D107
:1006800002F092FA02F021F901A8008D002802D1AF
:1006900020460CB0B0BD02F080FAC046FFFF00005B
:1006A00070B5007840B24723DB4347335DB2012386
:1006B000B824A8421FDCC5B2A5421CD3204608308E
:1006C000C0B2854207D22E46B63E00208E4215D8D3
:1006D000E01CC0B20BE020464030C0B285420AD3D5
:1006E0002E46F63E00208E4208D84334E0B28542C2
:1006F00001D9002000E001201070184670BDF0B54F
:10070000017849B24724E443473467B20124B8264C
:10071000059DB94204DD002018600121116008E048
:10072000C9B2B14209D20121196000788038106045
:100730000020287021460846F0BD37460837FFB232
:10074000B9420BD2B6391960002129700378B92B50
:100750000FDCB82B22D0B92B1CD0ECE74036F6B218
:10076000B1420BD2012119600078C03810602970A5
:10077000E0E7BA2B23D0BB2B16D0DCE7F6391960A3
:100780000121297003780021F92B09DCF82B05D011
:10079000F92BD0D18178407800020EE0407815E046
:1007A000FA2B0CD0FB2BC6D14178090683781B04A9
:1007B0000B43C178090219430079084306E04178E8
:1007C000090483781B020B43C07818431060B1E71B
:1007D000F0B58BB014460291064601273902204637
:1007E00003F092FB03AD68460560093640232046BE
:1007F00039463246FFF77AFC0C35284602992246E4
:1008000000F002F80BB0F0BDF0B5A7B00392049170
:100810000546314800684368012118460591884320
:1008200000261E28304608D106AF64212BA2384688
:1008300003F09AF8384606F0EBFB06A90290081878
:100840000599C94327A70A4672434B1C7343EB5CC7
:100850001C093C5D845482180F242340FB5C5370B8
:10086000761E32461432EED105980102039E3046C0
:1008700003F04AFB1FA869460860029B283306AABA
:1008800030460599FFF732FC00200146059A1140D9
:1008900042087F231340EE5C32092640002900D035
:1008A0003246092A01D8BA5C0AE0BA5C1FAEF35C92
:1008B000890004264E400821B1400B4200D0E032AE
:1008C00004990A54401C2828DFD128200021049ACA
:1008D000115427B0F0BDC046A01A0020256430781E
:1008E0000000000030313233343536373839616238
:1008F0006364656600000000F0B583B014460D46E1
:10090000064601200290012D0AD13078302807D107
:100910000020022B71D3302020700020607066E030
:10092000089FAF4227D2EA1BA91C0020994264D835
:100930000021002A0BD0304601921146234602784E
:100940001A70401C491E5B1C0029F8D10199002F28
:10095000084602D02E206054481CA94249D22218D1
:1009600073186E1A45191F781770521C5B1C761E7F
:10097000F9D1691A1DE0791BFA1C00209A423CD873
:10098000302020702E2060700220002905D0A01C8D
:10099000302206F097FAB81C401B002D29D02118F0
:1009A0002A4633780B70491C521E761C002AF8D157
:1009B000411900236354884219D2255C002B02465A
:1009C00000D01A460023302D00D01A46401C814228
:1009D0001346F2D1002A0AD00020A054A118C24325
:1009E0008A5C491E2E2A029A06D1087004E00298F9
:1009F00003E0029A00212154104603B0F0BD00002C
:100A000010B5084C20700848784403F0C3F901225F
:100A1000214603F001FA054979440020024602F01C
:100A200013FF10BD00180020B4FE00006C68000029
:100A300010B5094C20700948784403F0ABF9401C0C
:100A40000122214603F0E8F90549794400200246D5
:100A500002F0FAFE10BDC0460118002084FE00001E
:100A60003A68000080B50748784403F093F90178AC
:100A70000120002900D1084603497944002202F0F0
:100A8000E3FE80BD54FE00006267000080B50748A9
:100A9000784403F07FF941780120002900D108460D
:100AA00003497944002202F0CFFE80BD2CFE0000F5
:100AB0008E67000070B505466878012400281FD0B5
:100AC000411E104A1268012400238A4200D01C46AD
:100AD0008A4215D17D26310101280FD002280FD17D
:100AE0000721284602F04CFBF6008019064988428F
:100AF00004D30721284602F043FB811903484161D2
:100B0000204670BD94180020B80B000098180020F3
:100B1000F0B581B005466878012400283DD0421E1A
:100B20001F4F396801240023914200D01C46914296
:100B300033D17D22D3001B4E022817DD032803D0BA
:100B4000042801D0052828D1072128461F4602F095
:100B500017FB3A468018B04205D3072128461546B0
:100B600002F00EFB46191048466116E0012811D02C
:100B7000022812D10D480078002807D00C4878448C
:100B800003F008F940780028EDD03968481C386037
:100B9000002402E0100104494861204601B0F0BD84
:100BA00094180020B80B0000981800204819002065
:100BB0003EFD000041780A4A012000290FD0022999
:100BC00003D0012903D17D200201064842614A1E5B
:100BD0000548036801200021934200D00846704771
:100BE000B80B0000981800209418002070B5054636
:100BF0006878012400281FD0411E104A1268012481
:100C000000238A4200D01C468A4215D17D2631013C
:100C100001280FD002280FD10721284602F0B0FA90
:100C2000F60080190649884204D30721284602F0BD
:100C3000A7FA811903484161204670BD941800202D
:100C4000B80B00009818002070B50546687801249C
:100C500000281FD0411E104A1268012400238A4236
:100C600000D01C468A4215D17D26310101280FD0C3
:100C700002280FD10721284602F082FAF6008019D7
:100C80000649884204D30721284602F079FA8119DF
:100C900003484161204670BD94180020B80B000045
:100CA0009818002080B5034979440020024602F0DC
:100CB000CBFD80BDA066000010B500F017F8094913
:100CC00090220A54091800244C70801C81B2202004
:100CD00002F0E0FA044979442046224602F0B4FDCD
:100CE000204610BD4C1D002072660000B0B5104CAF
:100CF00041222270601C0F4D2946083101F099FEF7
:100D00004220282222542046433029464C3101F00B
:100D100090FE9520295C6B20002907D06B34753537
:100D200020222046294601F084FE8B20B0BDC0461B
:100D30004C1D0020CC19002080B50D49884212D0EE
:100D40000C49884211D10C486921017085214170FC
:100D50002020022102F09EFA084979440020024630
:100D600002F072FD01E0FFF7A7FF002080BDC04642
:100D700002000080010000804C1D0020EE65000094
:100D8000F0B5B1B03A4805F0A4FF0390394F3A7876
:100D90000021049168460160391D212629AC3046A6
:100DA000234603F067F9202506AB304621462A4644
:100DB0001E4603F0D9F82046049C21462A4601F03D
:100DC0002FFE059405A86946886010A848600D604C
:100DD0002C3729490322354628463B46FFF7F6F9CA
:100DE00028222846214601F01BFE7C202049095C70
:100DF0001B20002902D00398400023301F4B18709D
:100E0000059A01210A4201D0401C1870920701D5B1
:100E1000801C187010A8C678212E00D00499071DD8
:100E2000394380194479581C20252A4601F001FED7
:100E3000B919481C212C00D00846811C0F480646D1
:100E400021302A4601F0F5FD412090213154422005
:100E5000049C34544321284602F01CFA0849794482
:100E60002046224602F0F0FC204631B0F0BDC046DC
:100E70004C190020CC190020010600004C1D002058
:100E8000EA640000F0B5B3B0304E3278002106912C
:100E900068460160311D21242BAD20462B4603F00E
:100EA000E9F8202708AB0493204629463A4603F088
:100EB0005BF82846069C21463A4601F0B1FD0794AE
:100EC00007A86946886012AD4D6005970F602C3603
:100ED0001F490324049F384622463346FFF776F91C
:100EE00028223846069901F09BFD079820401B30C8
:100EF000184C2070691D2E1DEF78212F00D031462F
:100F0000E8194579601C059A01F093FDF119481C18
:100F1000212D00D00846811C20462130059E3246F6
:100F200001F087FD4120902121544220069D255447
:100F30004321304602F0AEF90749794428462A4653
:100F400002F082FC284633B0F0BDC046CC19002028
:100F5000010600004C1D00200E64000010B5194869
:100F6000FFF772FB8021012804DC002814D001283F
:100F700025D002E002281FD0032813486A220270FD
:100F800041702020022102F085F9104979440020A7
:100F9000024602F059FC12E010310B4801700024A7
:100FA00044702020022102F075F909497944204655
:100FB000224602F049FC02E0002000F00BF800207D
:100FC00010BDC046641A00204C1D0020BC63000008
:100FD0009C630000F0B5ABB00446B94F38680068B8
:100FE00002F0D8FE06903868006802F0D3FE049044
:100FF000D520C501386840688026002806D0B14851
:1010000005F067FE3968496881423FD1AF4A2C320A
:1010100068460260AE480121002703913B46FFF776
:1010200065F8AC480078002823D0122500F040FA7B
:101030000446002C3CD0A8480770A07F029077207F
:10104000A04914220A5408460E466330A34D29468F
:10105000103101F0EEFC304642302435202629467E
:10106000324601F0E6FC622096490E541434069490
:101070001FE09948007812210291002819D0A24857
:10108000784402F087FE0078002812D1012C00D1AC
:1010900012E18D486A21017046702020022102F081
:1010A000F9F8984979440020024602F0CDFB01E1AD
:1010B00002957720834E305C002813D03046633091
:1010C00007AC834A2146FFF79FFB854D30202870EF
:1010D00078206870A81C2822214601F0AAFC2A204A
:1010E0002F540AE07F48894979440D2201F0A1FC80
:1010F0007B487DA1092205F0E1FE6220315C354686
:101100003046423012AC224605F0CCFD6E4E3246DF
:1011100064320A2164232046059204F059FD3246C8
:10112000FC43214650186526805D491C0028F9D1F2
:101130006846029B036064230598FFF7DDFB069871
:10114000007800280BD0002765493A46CB192B2799
:10115000D855521CD7B20698C05D0028F6D1604819
:10116000C01902462B325849097800290AD02B3081
:10117000554A521C0170531C401C117800291A4614
:10118000F8D10246002717702020295C22AA069277
:10119000284605F087FD4120295C21351AAA2846FA
:1011A000154605F07FFD12AA06982946154604F05B
:1011B00044FA0A2164232846059A04F009FD424AAC
:1011C0001019805D641C0028FAD11220694608605D
:1011D000642305982146FFF78FFB049C20780028A4
:1011E00003993F4D0AD03A461146EA195D23D0547F
:1011F0004A1CD7B2E05D0028F6D1891CC8B2281875
:1012000002465D32304B1978002909D05D305A1CF6
:101210000170531C401C117800291A46F8D102466F
:101220000025157033480560334805210160334CB3
:101230003748784420600D2060603648784420614B
:1012400035487844E06003202076E5612046183078
:1012500002F03EFFE06102F085FB01F0FBFD01F0D2
:10126000FFFDA5602068002824D0E0692449884259
:101270001ED11FE0606885421CD202F099FF002851
:1012800018D1A068E1683825684322681018002941
:1012900002D08847002807D0012803D1A068454321
:1012A0002068401901F02AFFA068451CA56020684D
:1012B0000028DFD12BB0F0BD284601F06EFCC046FF
:1012C000A01A00204C1900204C1D0020CC19002031
:1012D000F81A0020A51A002048190020A81A00209A
:1012E00002180020A01C0020436F6E7472616374AA
:1012F0000000000094180020F01A00209818002028
:10130000445010B0A46200003CF80000E86B0000FC
:101310002A630000DD000000CBF8FFFF80B50D4917
:10132000884212D00C49884211D10C4869210170C1
:10133000852141702020022101F0ACFF0849794449
:101340000020024602F080FA01E0FFF719FD0020BC
:1013500080BDC04602000080010000804C1D0020BE
:101360000A60000080B50D49884212D00C498842BD
:1013700011D10C4869210170852141702020022182
:1013800001F088FF084979440020024602F05CFA27
:1013900001E0FFF777FD002080BDC046020000801D
:1013A000010000804C1D0020C25F000080B50D4987
:1013B000884212D00C49884211D10C486921017031
:1013C000852141702020022101F064FF0849794401
:1013D0000020024602F038FA01E0FFF7BFFD0020CE
:1013E00080BDC04602000080010000804C1D00202E
:1013F0007A5F000080B50D49884212D00C498842BE
:1014000011D10C48692101708521417020200221F1
:1014100001F040FF084979440020024602F014FA26
:1014200001E0FFF79BFD002080BDC0460200008068
:10143000010000804C1D0020325F0000B0B5054661
:10144000072028400024012813D0022813D10029A6
:1014500008D00A4802F096FE68B2002809DA02F0C5
:10146000C7FC06E0FF2152310448002202F0B6FE1C
:1014700004462046B0BD022001F08FFB4C1D002029
:1014800010B500228B5C002B0AD1521C082AF9D31C
:1014900006D130210170417000218170022010BD01
:1014A000891808239C1A224605F0DCFB600010BD59
:1014B000F0B581B07B48006808214156C8B21628B3
:1014C00000D9D5E08A00784BCB40D90700D0CFE0D7
:1014D0007A4979448958009100270125784E7E4445
:1014E0003C4608E00098854200D3C1E01F366D1CE1
:1014F0006C480068007AC0B20A280FDD10281DDC95
:101500000D2836DC0B285BD00C285ED00D2800D0CF
:10151000A4E01F2078436F4979449BE004281BDD39
:10152000072831DC052855D0062858D0072800D0D8
:1015300094E01F207843654979448BE013282EDC22
:10154000112851D0122854D0132800D086E01F2033
:101550007843624979447DE0012828DD02284DD096
:10156000032850D0042879D11F2078435649794464
:1015700070E00E284CD00F284FD010286ED11F20BD
:1015800078435549794465E008284BD009284ED066
:101590000A2863D11F2078434D4979445AE0142822
:1015A0004AD015284DD01628304654D056E0002891
:1015B0004CD0012852D11F2078434249794449E058
:1015C0001F2078434D49794444E01F2078434C491B
:1015D00079443FE01F207843464979443AE01F2090
:1015E00078434549794435E01F2078434749794499
:1015F00030E01F207843464979442BE01F20784390
:101600003B49794426E01F2078433849794421E05A
:101610001F2078433B4979441CE01F2078433A4916
:10162000794417E01F2078432F49794412E01F20A6
:1016300078432B4979440DE01F207843354979449C
:1016400008E01F2078433449794403E01F207843A1
:1016500024497944081802F09DFB0446134963317C
:101660001422204601F082FA7F1C002817D039E7A7
:101670000F4E3078002804D10E480078002400284E
:101680000DD00D4D4C35094963311422284601F027
:101690006DFA0024002802D1002030702C4620462C
:1016A00001B0F0BDA01A0020DCDF7F004C19002043
:1016B000A41A0020A51A0020CC1900207A68000086
:1016C000A5F1000091EF00005BF000004BF100007D
:1016D000E9F0000016F00000FFF000002FF100001C
:1016E000886900006A6900009FEF0000BDEF0000FC
:1016F00081F00000EFEF00009FF00000BDF000005F
:10170000F9EF0000B3EF000063F0000095F0000077
:101710008BF0000045F000003BF00000F0B583B016
:10172000044620780026082827D1A068002824D065
:10173000A64901270F707721A54A515C00291CD0CA
:10174000E568002D21D13D46A16A0327042915D360
:101750000021442815D1606A0F46A8497944042223
:1017600001F004FA394600282F460BD1FFF7A0FEFE
:101770000121002806D1014604E03746F8B203B043
:10178000F0BD2F4693480170E56892480078002824
:1017900016D0A068A8420BD98F494919401BA26AEC
:1017A000824200D302462046FEF768FDA068E56845
:1017B0008542E3D12078401C207000206074DDE772
:1017C00002978F48784402F0E5FA002D0BD040785C
:1017D00000283746D2D021207F49085C1F210140D4
:1017E0002022561A0FE0007803270028C6D085482B
:1017F000784402F0CFFA407800283746BED07649C8
:10180000002008840426A168491B0327B142B5D3F0
:1018100071490918A76AB7423A4600D332462046B2
:101820000192FEF72BFDA068E168814204D1207887
:10183000401C207000206074212067490A46115C1A
:10184000019BC9181154B742029F97D3002D69D04C
:101850002021614F7A5C521C7A5400243C54D3B24C
:101860005E4D2846643028215DA202F07DF82646B0
:10187000A8193919FFF704FE8019182C05D03A2150
:1018800029540834461C202CF2D158480025056004
:10189000574802270760574C5E487844206007206D
:1018A00060605D48784420615C487844E0600320D3
:1018B0002076E5612046183002F00AFCE06102F073
:1018C00051F801F0C7FA01F0CBFAA56020680028B2
:1018D00000D153E7E0694849884220D14EE760686B
:1018E000854200D34AE702F063FC002800D045E7B8
:1018F000A068E1683825684322681018002902D0E2
:101900008847002807D0012803D1A06845432068F4
:10191000401901F0F3FBA068451CA5602068002871
:10192000DDD12BE700252C490D542C48042205F06D
:1019300099F92E4805602E48022707602D4C324841
:101940007844206007206060304878442061304847
:101950007844E06003202076E5612046183002F0EC
:10196000B7FBE06101F0FEFF01F074FA01F078FAD4
:10197000A5602068002800D100E7E0691E49884280
:1019800020D1FBE66068854200D3F7E602F010FC48
:10199000002800D0F2E6A068E16838256843226894
:1019A0001018002902D08847002807D0012803D149
:1019B000A06845432068401901F0A0FBA068451CC1
:1019C000A56020680028DDD1D8E6C046481900206F
:1019D0004C190020A51A0020A81A00200218002087
:1019E0004669656C6420256400000000941800209E
:1019F000F01A002098180020445010B070650000C4
:101A0000F8F00000CCF000007C6000005FFAFFFFFF
:101A100099F2FFFFAA6200004DFBFFFF9BF3FFFF5F
:101A200080B501F06BFB80BDF0B5A1B01346054653
:101A30001A785B1CD520C001541EE4B20A2C00D3D6
:101A4000AEE0022D00D3A8E00495012900D9A4E05E
:101A500027980190269802900FA81446DD789E786A
:101A600036022E435D781F783F022F433D043543F5
:101A700020C01B1D641EF1D100240129204600D185
:101A8000084695234B4DE85428467530012900D06F
:101A900020466946086021260FA919AF30463B460B
:101AA00002F0E8FA2022039205AD304639462B4673
:101AB00002F05AFA012330463E4E31462A4602F0E1
:101AC0006BFA28222846214600F0AAFF3846214614
:101AD000039A00F0A5FF34464C34374A304621467D
:101AE000FEF776FE049800285CD068460460334810
:101AF0002B2133A2282301F037FF3348002505604E
:101B0000324802210160324C33487844206007207B
:101B1000606032487844206131487844E0600320B6
:101B20002076E5612046183002F0D2FAE06101F03B
:101B300019FF01F08FF901F093F9A56020680028E2
:101B400024D0E069234988421ED11FE060688542A5
:101B50001CD202F02DFB002818D1A068E1683825BE
:101B6000684322681018002902D08847002807D04F
:101B7000012803D1A06845432068401901F0BEFA4E
:101B8000A068451CA56020680028DFD1029A106873
:101B900010210143116021B0F0BD803000F0FDFF45
:101BA00000F0FBFFFFF7A2F801990860092000038D
:101BB00000F0F3FFCC190020F81A002002180020D2
:101BC0003078252E2A73000094180020F01A002087
:101BD00098180020445010B0CA58000021F2FFFFAE
:101BE00097EFFFFFF0B5A1B01646D520C001002B3E
:101BF00058D035780A2D55D22F461C37591E89B238
:101C0000B9424FD304910390701C059019AA39462C
:101C1000FEF799FA244C6034204605992A4600F0D4
:101C200008FF002060557419611C1F484C301422B5
:101C300000F0FFFE207E6A211B4A50541B480068BA
:101C4000406800280BD0F15DE27E12020A43A17EBB
:101C5000637E1B020B431904114388421BD12120D0
:101C600015497944412206AE334602F065F9104821
:101C700004990918491B1B30084069461D3420226D
:101C800014C108600125032219AB3046294602F031
:101C9000BBF9002802D1039800F07FFF05480570CA
:101CA0000920000300F079FFCC190020A01A0020C1
:101CB000E4FF0000A41A00207B600000F0B585B0AE
:101CC0001E461546D522D4016B221302802833D03C
:101CD000002853D103910494287832490870421E99
:101CE000D2B20A2A5AD20293761E6D1C0022EB78D9
:101CF000AF783F021F436B782C7824021C432304E7
:101D00003B4394000C196360B3B2274C1E192D1D80
:101D1000521C8242EBD325480021017024480170F7
:101D20006846016023482449244A264B7B44FEF739
:101D300068FA049C029B039900291FD11D48007872
:101D400000281ED01E480068017A012300200629C1
:101D500000D00346B2B217482946FEF7C5FA411E25
:101D6000022910D20A990A68102313430B60022833
:101D700002D10120FFF72EF905B0F0BD184600F0A2
:101D80000CFFFB3C07E0032805D0002803D1092005
:101D9000000300F002FF204600F0FFFE049800F070
:101DA000FCFEC046CC190020FCFF000048190020B2
:101DB000A51A0020641A0020F81A00204C190020EF
:101DC000A01A0020EDF9FFFF80B50C48784401F01F
:101DD000E1FF017801200029024600D10A460649A8
:101DE0000A70487002228A70C8700398042101604A
:101DF0000920000300F0D1FE4C1D0020F0EA000095
:101E0000F0B58FB01746D522D201802800D18FE0DF
:101E1000002800D01EE105923A78944E3270501E90
:101E2000C0B20A2800D31DE104913879F97809027B
:101E30000143B8783C467D782D02054328040843C9
:101E400091000125039129430291591E0191002A15
:101E500006941BD00321C943524200233746CE1CAF
:101E60005E43B600BE19706008465843069C2018B1
:101E7000067AC479240234438679407900023043DB
:101E8000000420435B1E9A42E9D100E03746F86423
:101E90002902774C204602F037F800266846066093
:101EA0007B4A7A441A2320463146FEF71FF90298EE
:101EB00006990818069003980199081A80B26D498E
:101EC00040180390FF6C2C460A210D4665432846B6
:101ED00004F036FFBD4201D8A042F4D00698001DA0
:101EE0000690002C15D000263846214604F028FF25
:101EF0000A25294604F0AAFF30200843F1B207AAB8
:101F000050542046294604F01BFF761C092C044639
:101F1000EAD8F3B207AA0021D154684601605448B8
:101F2000FEF7E4F8544801F0C1FF04AF86CF039BED
:101F3000002900D08EE09CB24C4EF06C844200D957
:101F400089E0002568460560494829463A46234607
:101F5000FEF7CCF868460560474829463A462346CE
:101F6000FEF7C4F8F06C001BF06477D1149806906B
:101F70002C36684606603E48012631463A462B46D6
:101F8000FEF7B4F807AC684604603B4831463A4671
:101F90002B46FEF7ABF8394F02263846214632462B
:101FA00004F060FE2E2038717871B871F81D1E346F
:101FB0002146324604F056FE31480560314806603D
:101FC000314C3448784420600720606032487844BF
:101FD000206132487844E06003202076E5612046A5
:101FE000183002F075F8E06101F0BCFC00F032FF3F
:101FF00000F036FFA5602068002824D0E06923495E
:1020000088421ED11FE0606885421CD202F0D0F8E1
:10201000002818D1A068E1683825684322681018A4
:10202000002902D08847002807D0012803D1A068E2
:1020300045432068401901F061F8A068451CA5607F
:1020400020680028DFD1069A106810210143116032
:102050000FB0F0BD8032104600F09FFD0920000354
:1020600000F09BFD059800F098FDC046CC190020BB
:10207000F81A0020FCFF00004C1900200218002074
:1020800094180020F01A002098180020445010B036
:102090007C5E00007058000093F3FFFFDDEBFFFF54
:1020A000F0B58DB00C46064602AF384604F096FFF8
:1020B00005463D85A8B2002817D0102864D002A894
:1020C000002101850F2000032840290ACEB20921F2
:1020D0000903884234D00321490388422AD13E486B
:1020E00000213C2200F09CFC2AE002A800F0EDFB5D
:1020F000374A1078E0284FD1507805280CDC0228A8
:1021000028D004285FD11379D17890786C46266066
:10211000521DFFF7D3FD28E0082841D12D480021AA
:1021200001701379D17890786C462660521DFFF7C4
:1021300067FE1AE0294805400D20C00205432E0A1B
:10214000206823490E542068081845702068801CB8
:1021500020600AE01F4800230370D17890786D4614
:102160002E606C60521DFFF75FFC00F01BFD02A9A2
:10217000884203D100F018FD00F0A7FB02A8008DF3
:10218000002807D10DB0F0BD02A800210185102064
:1021900000F003FD00F001FD3720400200F0FDFCDF
:1021A000062809D00A280ED10A49002008701379A0
:1021B000521D0146FFF716FD6846446000200146A7
:1021C0000346FFF701FE6D20000200F0E6FCC0466A
:1021D0004C1D0020A41A0020641A0020FF070000F4
:1021E000F0B58FB000260E960D960C96384F0BA8C2
:1021F00006806D46284604F0F1FE288585B2002D44
:1022000016D0102D55D069460E850F2109030140C7
:1022100009221403A14222D003225203914221D168
:102220000BA9088000213C22274800F0F9FB20E0A0
:10223000684600F04AFB0D980E9000240D940C980F
:102240000E99C0B289B201F025F80E900C940E9848
:10225000002833D00CA80DA9FFF722FF1AE00BA924
:10226000088006E0194908400D21C90201430BA866
:102270000180A54203D010200C9981430C910B984A
:10228000000A0D9978540B980D99791848700D989B
:10229000801C0D9000F086FC6946884203D100F056
:1022A00083FC00F012FB6846008D00289FD000F0F0
:1022B00074FC68460685102000F06FFC014800F0B1
:1022C0006CFCC04682690000641A0020FF07000011
:1022D0004C1D0020F0B585B0E04D2878E04F0C286B
:1022E00010DD0D287BD00E2800D1B8E0152835D19F
:1022F000DC480078012831D1A87900072ED41020BD
:1023000000F04BFC052800D1EBE00C2826D1D64C80
:10231000012020760026E6612046183001F0D8FE24
:10232000E06101F01FFBE069D049884200D191E2F1
:10233000002800D18EE2FD49884200D01FE200F063
:1023400089FD00F08DFDA6602068002800D181E2A3
:10235000E069F849884200D031E17BE2F44C012089
:1023600020760025E5612046183001F0B1FEE061DD
:1023700001F0F8FAE069B84200D0D8E000F06AFD58
:1023800000F06EFDA5602068002800D162E2E069DF
:10239000E849884220D15DE26068854200D359E275
:1023A00001F006FF002800D054E2A068E16838255B
:1023B000684322681018002902D08847002807D0F7
:1023C000012803D1A06845432068401900F096FE1B
:1023D000A068451CA56020680028DDD13AE2D44CF5
:1023E000012020760025E5612046183001F070FEBE
:1023F000E06101F0B7FAE069CE49884200D129E2F4
:10240000CA49884200D182E1002800D122E2206836
:10241000002800D118E2A0686168884200D313E266
:1024200001F0C6FE002800D00EE2A068E168382561
:10243000684322681018002902D08847002807D076
:10244000012803D1A06845432068401900F056FEDA
:10245000A068401CA06021680029DDD1F4E1B44CE3
:10246000012020760026E6612046183001F030FE7B
:10247000E06101F077FAE569BD4200D0C5E000F007
:10248000E9FC00F0EDFC0020A0602168002900D1EB
:10249000E0E1E169F84A914220D1DBE161688842DC
:1024A00000D3D7E101F084FE002800D0D2E1A0687B
:1024B000E1683825684322681018002902D088474F
:1024C000002807D0012803D1A0684543206840199F
:1024D00000F014FEA068401CA06021680029DDD136
:1024E000B8E1E24C012020760026E6612046183053
:1024F00001F0EEFDE06101F035FAE069DE49884265
:1025000000D1A7E1002800D1A4E1D749884200D03A
:102510006FE100F09FFC00F0A3FCA660206800289B
:1025200000D197E1E069D44988426BD192E12068FB
:10253000002800D188E1A0686168884200D383E167
:1025400001F036FE002800D07EE1A068E168382561
:10255000684322681018002902D08847002807D055
:10256000012803D1A06845432068401900F0C6FD4A
:10257000A068401CA06021680029DDD164E160688A
:10258000864200D366E101F013FE002800D061E12D
:10259000A068E1683825684322681018002902D035
:1025A0008847002807D0012803D1A0684543206848
:1025B000401900F0A3FDA068461CA6602068002812
:1025C000DDD147E16068864200D343E101F0F0FDD0
:1025D000002800D03EE1A068E16838256843226801
:1025E0001018002902D08847002807D0012803D1FD
:1025F000A06845432068401900F080FDA068461C93
:10260000A66020680028DDD124E1606900284FD051
:1026100064216428024600D30A46801A6061113F93
:10262000BD4245D0002D43D0002841D190480168DB
:1026300000293DD08F4F3868401C04F007FC3960FA
:1026400000F008FC00F00CFCA660206800282FD0E9
:10265000E0698949884229D12AE0C046C01C00208F
:10266000555010B0A81E002098180020445010B0FB
:10267000606886421CD201F09BFD002818D1A0683A
:10268000E1683826704322681018002902D0884774
:10269000002807D0012803D1A0684643206880198C
:1026A00000F02CFDA068461CA66020680028DFD141
:1026B0007148854200D1CDE0002D00D1CAE02068EC
:1026C000002800D1C0E0A0686168884200D3BBE068
:1026D00001F06EFD002800D0B6E0A068E168382562
:1026E000684322681018002902D08847002807D0C4
:1026F000012803D1A06845432068401900F0FEFC82
:10270000A068401CA06021680029DDD19CE000F099
:10271000A1FB00F0A5FBA5602068002800D199E08E
:10272000E0695549884227D194E0C046555010B021
:1027300098180020445010B06068854200D389E0AA
:1027400001F036FD002800D084E0A068E16838255B
:10275000684322681018002902D08847002807D053
:10276000012803D1A06845432068401900F0C6FC49
:10277000A068451CA56020680028DDD16AE0A0881B
:10278000049020680390EE79AB796F792A79ED781F
:10279000E16868460560416012023A431B02334318
:1027A0000398049900F0DCFB206800284CD0A06856
:1027B0006168884248D201F0FBFC002844D1A0683F
:1027C000E1683825684322681018002902D088473C
:1027D000002807D0012803D1A0684543206840198C
:1027E00000F08CFCA068401CA06021680029DFD1AB
:1027F0002AE02069002803D0E978490800F0ECFCC1
:102800002068002820D0A068616888421CD201F0AE
:10281000CFFC002818D1A068E168382568432268F9
:102820001018002902D08847002807D0012803D1BA
:10283000A06845432068401900F060FCA068401C77
:10284000A06021680029DFD16068A168814201D3BE
:1028500001F0AEFC01F0ACFC002801D100F0AAF9B7
:10286000012005B0F0BDC046555010B098180020AA
:10287000F01A002094180020445010B010B58CB00D
:1028800001AC204604F0AAFB20850D49084206D180
:1028900001A800F01AF80020C04301F003FC00F08A
:1028A00081F901A9884203D100F07EF900F00DF80A
:1028B00001A8008D002801D10CB010BD00F06DF909
:1028C000FFFF0000002081467047814670470000EE
:1028D000F0B581B000920F460546484B9F420FD09D
:1028E000464C40262046314604F0E2FA0098402843
:1028F000024600D332462046394600F09AF83F4B54
:10290000987801280BDC00282BD0012869D1D81C2D
:1029100004211C4601F096FA402120462CE00228B2
:1029200028D005285DD11879D97809020143344AA5
:102930001068002481425AD1324E00988019071F36
:10294000106800281BD01446394631402E480268D2
:10295000914200D907683A4632402C480068591D18
:1029600031E000249C715C711C71DC7040211846C0
:10297000A8473CE021484021A847002437E0987947
:102980005979090201432248016001684908A829D0
:102990002DD8144601681C4801601C491D4A0A6074
:1029A00059781A7812020A431B490A601B49009A97
:1029B0005718394631400268914200D907683A46B3
:1029C0003240D91D134800F034F837400F480168F1
:1029D000C91901600C480168C91B01602068401CCE
:1029E00020600948016801200224002903D104481D
:1029F000002101602046C0B201B0F0BD5C1F002084
:102A0000401D0020FFFF0000481D0020A01E0020E8
:102A1000441D00204C1D0020A41E0020F9FF0100D1
:102A200080B50B46002A03D011461A4604F04AFA34
:102A300080BDB0B588420DD9002A14D0491E52423B
:102A4000401E0023DB431C4654430D5D0555521CBC
:102A5000F9D108E0002A06D000239CB20D5D05558F
:102A60005B1C521EF9D1B0BD0148002101607047C6
:102A7000401D0020F0B581B0294F3968002926D0CB
:102A80000090284C661D39253046294604F010FA7E
:102A900025480168090A2170006860700520A0704F
:102AA000224A1068000AE0701068207111683868C6
:102AB000002914D014463B253B2800D83D681C480B
:102AC000016830462A46FFF7B4FF009A18E017481D
:102AD0000021016016480160164801701DE016468D
:102AE000392800D83D683868000A60713868A071DC
:102AF0000F480168E01D2A46FFF79BFF009A344605
:102B00000B480168491901603868401B386020682B
:102B1000401C206003484021904701B0F0BDC046F2
:102B2000481D00205C1F0020A41E0020401D002026
:102B3000A01E0020BC1E002080B500290BD0064A34
:102B400000231360054A064B1360064A1160064ACB
:102B50001160FFF78FFF80BD401D0020A01E0020E8
:102B60004C1D0020481D0020441D002070B5431E50
:102B7000491E52420020C443002A0CD02646564328
:102B80008D5D9E5D521CAE42F6D00020C1430120F7
:102B9000AE4200D80846C0B270BD80B50146484676
:102BA00004F028FA4846704700204946002900D022
:102BB0004869704780B501F0FBFA00280BD1064840
:102BC000602101700021417002228270C170017188
:102BD000052101F0D7FA80BDC01C002010B51948AE
:102BE000C078032807DC01280DD0022826D116481A
:102BF00003F032FB10BD04281DD008281ED1124856
:102C000003F028FB10BD104C0121204603F01DFBF2
:102C1000204603F0FAFA0D48007800280FD10C483E
:102C2000002406222146FFF7FBFE0A480C2221461B
:102C3000FFF7F6FE10BD044803F00AFB10BD10209C
:102C4000FFF7ABFFC01C0020A41F0020A81E00201F
:102C5000A91E0020B01E00207F2101400148405CD9
:102C60007047C046A91E002010B5154801790429F7
:102C700017D0022906D0012920D1811D124803F066
:102C8000C6F910BDC2787F211140052916D8C9B2F6
:102C90004A000E4B00249C52821D0B4803F03FFA61
:102CA00010BDC2787F211140052907D84279C9B2E9
:102CB000044B5A54821D044803F0D7F910BDC04696
:102CC000C01C0020A91E0020A41F0020B01E002050
:102CD00070B515460E460446FF2D1AD80D485021F2
:102CE0000170E91C0A0A4270817080212143C17081
:102CF000202101714571062101F044FA3046294630
:102D000001F040FA7F20204040007D210901024A65
:102D1000115270BDC01C0020B01E002080B50A46B4
:102D2000014682201423FFF7D3FF80BD80B50A46F9
:102D3000014683201423FFF7CBFF80BD80B50D48EB
:102D40000178002915D10C4906220A700A21017068
:102D50000A488278417809021143FF225232914297
:102D600000D31146064A11801288C11C0548FFF79E
:102D700060FE80BDBC1E0020A81E0020C01C0020DC
:102D8000BE1E00204C1D0020B0B51E488278417840
:102D90000902114300780F2809DC0E280ED00F28F5
:102DA0001FD10020012926D1FFF718FF22E01028AB
:102DB0001BD0162815D1FFF7C1FF1BE000201249D8
:102DC0000A1A5389002B09D06424642B1D4600D3B2
:102DD00025465B1B53810D4A13420DD0801C0C28E5
:102DE000EED10220FFF776FAB0BD0020032902D30E
:102DF000FFF73AFF0120B0BD054800210170102007
:102E0000FFF7CBFEC01C0020B01E0020FFFF00001B
:102E1000BC1E002010B5092000F0D4FF0748002494
:102E200004700748048007480470FFF71DFE064839
:102E30000460064804600648046010BDBC1E002003
:102E4000BE1E0020A81E0020C01E0020C41E0020A0
:102E5000C81E00200148002101607047C01E0020EC
:102E6000024800210160024801607047C41E002032
:102E7000C81E0020B0B50D460446206B00280CD0BB
:102E800000F088FF01462046884700F083FF0021BC
:102E9000002810D0012800D00446002D07D020467D
:102EA000A8470021002806D0012800D0044620466B
:102EB000FEF7B6FD01210846B0BDB0B58EB00D4697
:102EC0000446606B00280CD000F064FF01462046E9
:102ED000884700F05FFF002100281BD0012800D0A8
:102EE0000446002D08D02046A8476C460021002843
:102EF00010D0012800D004466D46382228462146CD
:102F0000FFF797FD606A0490A06A05902846FEF7D7
:102F100087FD012108460EB0B0BDB0B50D46044690
:102F2000E06A00280CD000F035FF014620468847B3
:102F300000F030FF0021002810D0012800D0044606
:102F4000002D07D02046A8470021002806D00128E0
:102F500000D004462046FEF763FD01210846B0BDBF
:102F6000F0B587B0029303920591002977D00490C1
:102F70000D9801900C98009000253C4B06952F462B
:102F80001E4601F015F9002855D138206843049CED
:102F9000251833461A680121954200D006990691FA
:102FA0002056002841DA2020285C0221695E0A1A96
:102FB000039CA24239DC4118EA888918039A8A42A4
:102FC00033DA04216C5E221A02998A422DDC201821
:102FD000298940180299814227DA1868854210D061
:102FE000186800280DD00198002805D028460199BE
:102FF00088473346002818D018680199FFF73AFF30
:1030000008E00098012809D002280ED1284601992D
:10301000FFF783FF3346002807D022E028460199B6
:10302000FFF74BFF334600281ED17F1CFDB20598E9
:103030008542A5D300E03346069800060FD01868F5
:1030400000280CD001F0B4F83146002807D10868F8
:103050000199FFF70FFF002801D00020306007B072
:10306000F0BD00201860FAE71D60F8E7C01E0020E0
:10307000F0B589B00C46014602AD1C2228460192EB
:10308000FFF7D7FC2168E98062682A81A0681A4F9F
:1030900065233B7092B242438BB25343D9084E1C16
:1030A0000722134200D10E46314600910426864085
:1030B00070181D30010A7970B8700321384601F08C
:1030C00061F82846019901F05DF8A0683870012187
:1030D000384601F057F8E06800F05CFEB1B201F04C
:1030E00051F8009885B2206900F054FE294601F09D
:1030F00049F809B0F0BDC046C01C002070B50446B8
:1031000020787F26064001F053F8002830D1002EA9
:103110002ED0E06900281DD000F03CFE0546052EAB
:1031200002D1A07E002824D0284603F071FF064675
:1031300012486521017031461C310A0A42708170C3
:10314000032101F01FF81C21204601F01BF8B1B249
:1031500028460BE0094865210170002141701C25BB
:103160008570032101F00EF82046294601F00AF887
:1031700070BD20462946FFF77BFF70BDC01C0020B4
:1031800080B50A46C16900F001F880BD70B51646E9
:1031900004460025002C1CD02078072801D00228E6
:1031A00017D1084600F0F6FD002812D003F030FFDA
:1031B0004643E08886420CD9311A7D2000014843FD
:1031C000A17E03F0BDFDA17A4900C9B264224A4341
:1031D0001518284670BD0000F0B581B00446002CDB
:1031E0002BD0174802688A4203D1164A13685B1C29
:1031F000136006680E43134A1568134F002901D067
:10320000066004E00023036013607B1C1E4300681B
:10321000884201D000201060082D0BD303212846DE
:1032200003F014FE012080073043002900D030460F
:10323000384000E030462946A04701B0F0BDC04606
:10324000C41E0020C81E0020FFFFFF7FF0B581B024
:103250000F4E01243470B11CFF2750377A1C2046D2
:1032600000F078FF054675707A1B7719F91C02206B
:1032700000F070FFB8702D187619F47000F054FF4C
:103280003071902070710020B071E81D01B0F0BD68
:103290004C1D0020F0B587B00B46024607200242C5
:1032A00007D01646F0B21946FEF7C8F880B207B04C
:1032B000F0BD0390A948019083200490A84CAC492C
:1032C000A94D164612E004980D30A94908704F70B8
:1032D000069A1643022303980242324606D0E1E7DB
:1032E000FFF7B4FF03463A463E46A1491020069236
:1032F00010409FB2002F059034D0002832D12078A2
:10330000092800DD8FE0072800D193E0092800D0CC
:10331000ACE02620954A105C002803D0108D0028D0
:1033200000D111E1FE1D7008A92800D312E1049814
:103330000D30C855C8190022029242700198001D34
:10334000BA1C0240481D0F46FFF773FB05223846A2
:103350000299FFF765FBB3B2844804993A4601F03D
:10336000E5FB95E0180400D0A6E02078092800D0FD
:10337000A2E07C4F7868B96881423AD2802100226D
:10338000284600F02BFF3868002820D0B8687968FC
:1033900088421CD200F00CFF002818D1B868F968E8
:1033A000382670433A681018002902D08847002850
:1033B00007D0012803D1B868464338688019FEF762
:1033C0002FFBB868401CB86039680029DFD17E68DF
:1033D0006448876880210022284600F0FFFEB7423B
:1033E000604FD0D3FFF7E6FB80210022284600F093
:1033F000F5FE262001215D4F3954002038853846DE
:1034000001F0E6F82A26BF5D08E080210022284668
:1034100000F0E4FEFFF7B8FC5448875DFFF7CAFBF5
:10342000002FF2D148E00A280AD00B2820D15948B1
:10343000784401E0564878443946FFF77DFB27E0A1
:103440004C4818404008A92800D383E05320287036
:10345000380A6870AB700321284600F093FE444898
:10346000394600F08FFE0020207011E000286ED059
:10347000F0B23946FDF7E2FF002809D067E0FFF718
:1034800099FB80210022284600F0A8FEFFF77CFC73
:1034900020780028F3D10020207037490870374980
:1034A0000880069EB10600D500E7FFF783FB3006D3
:1034B00002D5012000F0F6FD0598002806D10698F7
:1034C00040063CD4002020702B49087000202B4976
:1034D000088000F06DFE002801D1FFF76BFB80260D
:1034E0000027284631463A4600F078FE022806D8E2
:1034F000A9786A7812020A43C01E904209D1FFF7E8
:1035000043FC20780028E4D01C4800880028E0D044
:1035100002E000202070DAE70422154818A1FFF726
:1035200025FB002800D1DBE60422114816A1FFF795
:103530001DFB002800D1C6E610480088B6E60F48FB
:10354000008801994018B1E613850020AEE60920F5
:10355000FFF723FB0220FFF720FBC046FBFF000024
:10356000BC1E002098180020C01C0020CC1E00208B
:103570004C1D0020FEFF0000A81E0020BE1E0020E3
:10358000B001000000000000B0A700000000000033
:10359000E3F8FFFFF9F8FFFFF0B581B007465F4C95
:1035A00025461435382228463946FFF742FA216964
:1035B000A068002903D088470346A06803E01C21C7
:1035C0004143226853180026002810D02269411E6A
:1035D000002A0FD00846009737462E461D469047D2
:1035E0002B4635463E46009F0246A06806E0304620
:1035F000324603E01C224A4321688A186168491E4A
:10360000884210D22169401C002908D000951D462F
:103610001646884732462B46009D064603E01C218D
:10362000414320684618787840280ADC202822DCAC
:10363000102834D0202867D15969002000296BD187
:1036400051E0802822DC412833D042285CD15969DE
:103650000020002960D1D96800295DD16268511E1F
:10366000012A59D0A2688A4256D0F168002953D164
:103670003069206348E0212831D0222844D11946FE
:1036800014315A690020002A2FD145E0822835D014
:10369000812839D1A1680020002935D13CE0D968C2
:1036A0000020002938D02163587E00282CD0E082E9
:1036B0002AE05969002000292ED1D96800292BD190
:1036C000A168002928D06168012925D0D168002986
:1036D00022D1516900291FD11069206314E0596972
:1036E0000020002918D01946103108682063187E80
:1036F000002809D0E0820820A08505E06068A16864
:10370000421E0020914207D0E268002A284603D0DA
:10371000143418462146904701B0F0BD101F002018
:10372000F0B581B005463D4F3969B868002902D02F
:103730008847064603E01C214143386846180124A7
:103740003748854214DD3748854217D036488542D0
:103750001CD0364885425ED13068002852D0B4680B
:1037600000F018FB0146FA68204600F06DF851E0C1
:103770002F4885420AD02A4885424CD17968B868DA
:103780004A1E00240121904205D344E00024E14375
:10379000B86800283FD04018B8602648002404606C
:1037A0002548046025480460254DAC602868002841
:1037B00031D0E869234988422DD000282BD000243D
:1037C00020466968884226D200F0F2FC002822D107
:1037D000A868E968382670432A681018002902D0C2
:1037E0008847002807D0012803D1A86846432868E5
:1037F0008019FEF715F9A868401CA86029680029FF
:10380000DFD108E07068002805D000F0C3FA014657
:10381000B06888470024204601B0F0BD101F00208A
:103820000200008002000040010000400300008010
:1038300001000080C01E0020C41E0020C81E002001
:1038400098180020445010B0F0B583B002920D4695
:103850000190394E002000907060002D15D03C4939
:1038600079441C2728463A46FFF780F900280CD0F7
:10387000384C7C447068401C70607843281821469E
:103880003A46FFF773F90028F4D101990846013050
:1038900005D070688842009800D30846B060356053
:1038A00000250298F0603561244C2B487844206054
:1038B0000920606029487844206129487844E06004
:1038C00003202076E5612046183000F001FCE0611D
:1038D00000F048F81A4805601A4805601A48056063
:1038E000A5602068002824D0E069184988421ED1CC
:1038F0001FE0606885421CD200F05AFC002818D1F5
:10390000A068E1683825684322681018002902D0B1
:103910008847002807D0012803D1A06845432068C4
:103920004019FEF77DF8A068451CA56020680028B6
:10393000DFD103B0F0BDC046101F00209818002052
:10394000C01E0020C41E0020C81E0020445010B01D
:10395000404700002E470000FC44000067FEFFFFC8
:10396000D9FCFFFF7047000081B0F0B590B016465B
:103970000C460A901593022C00D2F0E10A98002818
:1039800000D1ECE1002E00D1E9E100210A98079175
:103990002246FFF745F815A80B903078002800D193
:1039A000DDE10799C943651E0591BDE13019315D1F
:1039B00025290BD103930292431C0020202108915A
:1039C0000A21019100900490099056E006460A925F
:1039D0001EE1334608464BE0472B13DC19463039CD
:1039E0000A2934D2302B089900D11946099D002D9F
:1039F00000D008990A226A43D218303A0992334615
:103A000008913AE0672B04DD722B09DD732B46D158
:103A10000AE0622B48DC482B55D10122049201E0D8
:103A2000682B56D1102201920B9A131D0B9303237E
:103A300018404D1C1168012800D1CEE0022800D1A9
:103A4000D0E0032833462846069D16D0E7E02E2B0B
:103A500000D0CAE030782A2800D0C6E07178731C04
:103A60000120482904D0682902D0732900D0BCE085
:103A70000B990A1D0B920968009102211E463378AA
:103A8000761C00222D2BA7DC1046F8D0252B2AD03F
:103A90002A2B00D0A9E0307873289AD0A5E0752BA6
:103AA00023D0782B18D0A0E0632B00D18BE0642BBF
:103AB00000D09AE00B98011D0B910068C1174218C5
:103AC0004A40C00F16E0582B00D08EE00120049031
:103AD00002E0702B00D088E00B98011D0B9102686A
:103AE0000020102507E0252071E00B98011D0B91A7
:103AF000026800200A25069001270A92954212D8F2
:103B0000012428460746294603F01AF9A04209D1A4
:103B1000284678430999491E09910A9988423C46EA
:103B2000F0D900E027460024E143069B002B00D19A
:103B300019460998019140180899CAB2302A06D14D
:103B4000002B04D00CA92D230B7000230124811E0F
:103B50000D290CD8411E0AD00CA82043069303F06F
:103B6000B1F9069B0998001901994018441E002BD1
:103B700003D00CA82D210155641C0498002F18D0E7
:103B8000002801D079A000E07CA009900A9839466D
:103B900003F0D6F8294603F059F90998405C0CA9BE
:103BA00008553846294603F0CBF8641CBD42074649
:103BB000ECD9039B9C4200D31C460CA9029D2846CD
:103BC00022461F461BE00B98011D0B9100680299CD
:103BD00008700398401E491C15E0009C059A039B41
:103BE000069D24E00878002875D00520039F052F46
:103BF0003C4600D30446029D284664A12246FEF7B7
:103C000018FF381B29190A910346002800D1A6E0A5
:103C10003078002805991D4600D085E09FE0059A80
:103C20001446039B08194078641C0028FAD10198B7
:103C30001028029844D1002C74D008910A98831857
:103C4000501B8742394600D8014603914A430292ED
:103C5000501C019000202A460A9302995B18099093
:103C60000899085C0F250540000903998918491C2B
:103C7000022974D30499012903D0002908D13FA156
:103C800000E03AA1C0B2085C1870E8B2085C587055
:103C90000198904263D0921E0A9B9B1C0998401C7D
:103CA000A042D9D3099005990698081A874200D8EE
:103CB00007460846784318180A90B818431C1CE0B9
:103CC0009C4200D31C46224605461F46FEF7B1FE25
:103CD000381B29190DE0039B009F9F4200D31F460C
:103CE0002021029D28463A46FEF79AFE0398C01B03
:103CF000E9190A910346002831D00998A04287D9D2
:103D0000041B1D46AC4200D32C4620210A9F384696
:103D10002246FEF785FE2D1B3F190A972B46002DE4
:103D20001DD075E70A9073E70F46079C03E0301932
:103D300040787F1E641CC0B2002801D02528F6D12F
:103D4000AC4200D32C460A9831462246FEF771FE5B
:103D500006952B1B0A980219002B00D026E600209E
:103D600010B0F0BC02BC01B00847C046303132335D
:103D700034353637383941424344454630313233A1
:103D80003435363738396162636465664552524F5F
:103D90005200000080B50449884204D30349884298
:103DA00001D200F005F880BD0000D0C00009D1C0EC
:103DB0007A460249C91C891A401A7047B13DD0C0E1
:103DC00001DF704780B582B0009007486946FFF771
:103DD000F7FF01AA11600549884201D102B080BDF8
:103DE0000420FEF7DAFEC04637010060C6010090ED
:103DF00080B582B0064801A9FFF7E2FF6A4611606C
:103E00000449884201D102B080BD0420FEF7C5FEFE
:103E100000020060F102009080B584B000AB07C3DF
:103E200006486946FFF7CCFF03AA1160044988429F
:103E300001D104B080BD0420FEF7AFFE7F03006017
:103E4000BC03009080B584B001900291074801A99D
:103E5000FFF7B6FF03AA11600549884202D1039813
:103E600004B080BD0420FEF798FEC0462C0500601B
:103E70006705009080B588B001AF0FC70A9805901C
:103E80000B980690074801A9FFF79AFF07AA11604F
:103E90000549884202D1079808B080BD0420FEF78A
:103EA0007CFEC0463B070060AD07009080B582B045
:103EB000009007486946FFF783FF01AA1160054992
:103EC000884202D1019802B080BD0420FEF765FE51
:103ED000DB0A0060640A009080B586B001AF0FC7AE
:103EE000074801A9FFF76CFF05AA11600549884240
:103EF00002D1059806B080BD0420FEF74EFEC046F4
:103F00002C0B0060A00B009080B584B00190029152
:103F1000074801A9FFF754FF03AA11600549884229
:103F200002D1039804B080BD0420FEF736FEC046DF
:103F3000CF100060D810009080B586B001AF0FC7D9
:103F4000074801A9FFF73CFF05AA1160054988420F
:103F500002D1059806B080BD0420FEF71EFEC046C3
:103F6000ED2D0060492D009080B586B001AF0FC7E0
:103F7000074801A9FFF724FF05AA116005498842F7
:103F800002D1059806B080BD0420FEF706FEC046AB
:103F9000EA2E0060632E009080B586B001AF0FC797
:103FA000074801A9FFF70CFF05AA116005498842DF
:103FB00002D1059806B080BD0420FEF7EEFDC04694
:103FC0002E2F0060742F009080B58AB001AF0FC70C
:103FD0000C9805900D9806900E9807900F980890F1
:103FE000074801A9FFF7ECFE09AA116005498842BC
:103FF00002D109980AB080BD0420FEF7CEFDC0466C
:10400000F33800607638009080B588B000AF0FC7F5
:104010000A9804900B9805900C98069007486946FA
:10402000FFF7CEFE07AA11600549884202D1079822
:1040300008B080BD0420FEF7B0FDC046F139006035
:10404000E739009080B584B000AB07C307486946E4
:10405000FFF7B6FE03AA11600549884203D103A801
:10406000008804B080BD0420FEF797FD9E3C0060F0
:10407000B93C009080B586B000AF0FC70898049097
:1040800006486946FFF79CFE05AA1160044988426C
:1040900001D106B080BD0420FEF77FFDBA53006059
:1040A0001E53009080B582B0009007486946FFF724
:1040B00087FE01AA11600549884201D102B080BD86
:1040C0000420FEF76AFDC046E16200606F62009066
:1040D00080B582B0009007486946FFF771FE01AADB
:1040E00011600549884202D1019802B080BD0420C8
:1040F000FEF753FD586400601F64009080B582B0E5
:10410000009007486946FFF75BFE01AA1160054968
:10411000884201D102B080BD0420FEF73EFDC046BA
:10412000456700608767009080B582B0074801A9A5
:10413000FFF746FE6A4611600549884202D10098A1
:1041400002B080BD0420FEF728FDC0466E68006006
:104150007F68009080B584B000AB07C3074869460C
:10416000FFF72EFE03AA11600549884202D1039889
:1041700004B080BD0420FEF710FDC046D47000607E
:104180008770009080B584B001900291064801A923
:10419000FFF716FE03AA11600449884201D104B05A
:1041A00080BD0420FEF7F9FC1C720060F3720090E1
:1041B00080B582B0074801A9FFF702FE6A46116088
:1041C0000549884202D1009802B080BD0420FEF764
:1041D000E4FCC046CF7300607F73009080B584B06C
:1041E00000AB07C307486946FFF7EAFD03AA116061
:1041F0000549884203D103A8008804B080BD04208B
:10420000FEF7CBFCD17400602B740090F0B585B044
:104210000C4635490A788321002A02D03B4A7A4469
:1042200004E00A9A452A06D8394A7A44022300F063
:104230007DFC05B0F0BD01920094029003914020F6
:1042400004931F5C002F1BD0052F049E0AD10098F9
:1042500007281FD03046413024A10522FEF786FCF6
:1042600000282ED04136002523A4E8B2032102F015
:10427000EDFD705D615C414071556D1CAF42F4D144
:1042800045200499085C4630019A824205D1009885
:10429000072808D11F4A7A4401E01F4A7A440223C2
:1042A00002980399C3E7413112483A46FEF7C1FB31
:1042B0001448078014480721017009200A49087032
:1042C000B7E70C4E03223270701C0BA1FEF7B1FB56
:1042D000301D0AA10422FEF7ACFB3078431D029882
:1042E00003993246A3E7C046BC1E0020F1D000006F
:1042F000000000004C1D00207730770090009000F7
:1043000000000000BE1E0020A81E002067C40000A0
:104310005DC40000F3C30000EFC30000F0B581B03E
:104320001D460E460446284600F0F0FB012804D145
:1043300068460421FFF786FD04E06846042229460A
:10434000FEF777FB174F082238463146FEF771FB20
:104350003846083069460422FEF76BFB02203873AA
:10436000002078730121B973F8733874284600F07F
:10437000CDFB8625012807D128467930C1B2042219
:104380002046FEF74DFB04E0694604222046FEF776
:1043900050FB044A11232046294600F0C7FB01B018
:1043A000F0BDC0464C1D0020F0B585B015460C464A
:1043B0000490A07961790E020643A078029061789A
:1043C0002778093A90B2832303931F4B864203D088
:1043D000ED1F2B409E421BD13246002F08D01B4AB6
:1043E0007A4402230498039900F0A0FB05B0F0BDC5
:1043F000022917DC012920D002291BD190B269467D
:104400000860E31D002204980299FFF7FFFEEDE724
:10441000D0B28642E1D0E8B286422A46DDD00C4ACC
:104420007A44DEE703290BD0C12903D1094A7A4433
:104430000423D7E70A4A7A44D3E7074A7A44D0E705
:10444000064A7A440823CDE7FFFF0000B9C2000006
:1044500067C2000067C2000047C200004BC20000F4
:1044600065C2000080B581698A784B781B021343CE
:104470000A78812A09D0832A0CD0862A0ED1C91C39
:1044800000220346FFF74AFF80BDCA1C812100F0CD
:104490004DFB80BDC91C1A46FFF786FF80BD00009A
:1044A00070B50D460146012A11D1094C20462A4615
:1044B000FEF7BFFA60194026721B00252946FEF759
:1044C000AFFA8120214632462B46FEF701FC70BD33
:1044D0005C1F0020816082810022428282752A2333
:1044E000C2542623C25402848161C2617047000015
:1044F000F0B583B00D4604461C30217FC91EC9B2F9
:1045000001295ED8A18A628A914226D9042300201B
:10451000012D00D003460290A07D0327012600282C
:1045200000D037461F4340232026012D00D03346BC
:10453000DE1B891AB14200DC0E46F1190191012DF2
:1045400006D12248042221460292FEF772FAA07D8B
:10455000002811D0FF3002991BE032D10021618286
:10456000A1752A22A1542622A15481800160A0684D
:10457000A0611548017024E04020205C029B99B2A4
:10458000124A50540120184381B2637D5354411C98
:10459000207D89B20D4B5854A169002905D0B2B2D3
:1045A000D819638AC918FEF744FA608A80196082B4
:1045B000A07D401CA075019881B204482A46FFF7EF
:1045C0006FFF03B0F0BDC046BC1E00205C1F002082
:1045D000B0B501462A2001240C540B4D0422284674
:1045E000FEF727FA83202871002068710220A87145
:1045F0006920E8717C20C043801C2872092128466C
:104600002246FFF74DFFB0BD5C1F0020B0B501464C
:104610002A2001240C54084D04222846FEF709FAEA
:104620008820287100206871A87107212846224639
:10463000FFF736FFB0BDC0465C1F0020F0B585B067
:1046400004462120235C274621370020052B19D062
:10465000049008784B781B0203438878CE783602A2
:104660000643300418432378667836021E43A37845
:10467000E5782D021D432B043343834204D00520EB
:104680003870049805B0F0BD0E79081D0290E08BDB
:104690000123344D002820D0029503932023E55CAC
:1046A00023462033AE42EAD1A58A0095751C1D70C1
:1046B000009B1E1A531F05250195B34200DB019094
:1046C000B342029B00DB009A019D521B1018E0834D
:1046D0001340A08C491D1A4626E07C20C043401D93
:1046E000C0B20390832001900398864205D12046F2
:1046F0001C46FFF78BFF2046C4E70393487903026B
:104700008879C01C184301998E42B8D1A18A884289
:10471000B5D1111F814200DB0146E1832022002038
:10472000A0542A460A400299FFF78CFCA084A18A73
:10473000E28B8A4213D3618C8842A0D1002038706A
:10474000E0832620205C002806D0218D002903D09C
:104750002020FEF79FFD02E02046FFF739FF039877
:1047600090E7C046FFFF0000F0B589B007463B71F7
:104770003C461C34387F852503280ED007910892CB
:104780002621795C3E462636002913D03846079903
:10479000089AFFF753FF002873D1D748062101720A
:1047A000042139770021B9750830B8617982012078
:1047B000B8825FE0042809D100207882B8752A21E8
:1047C00078543070A0802060B868B861042100205F
:1047D0000693012B00D0014601230A461A4308988C
:1047E00090423DD3029206980128049103950593C7
:1047F00007D1042238460799FEF71BF90499059B57
:10480000039D788ABD4A00280FD00698012822D13E
:1048100038460E30154604223946FEF7A7F90499AA
:104820002A46059B039D002815D0032608460196BD
:1048300030430E460899814212D307998819009097
:1048400088570E4629467A3149B2884235DDAA4852
:104850000421017207E0022008430899814212D224
:10486000A5480572042139770021B9750830B8616F
:104870007982BB823A3540203D5439793846FFF77A
:1048800037FE09B0F0BD787F069988424AD120787A
:10489000012853D11646069801287AD10425079895
:1048A00039462A461C46FEF761F92346002870D097
:1048B0009148062101723D77E5E0069B012B15D159
:1048C000207801281DD139460E311546042238467C
:1048D000FEF74CF92A46069B039D002806D0009857
:1048E0000078691CC9B2884200D0E6E0207801282F
:1048F00007D1012B79D100980078691CC9B2884290
:1049000073D1022004990843305C0299715C0C0257
:104910000443B889C01E84421EDD774801990172A4
:10492000042165E02846083073490872042038776E
:104930000020B8750831B96178829AE70698012895
:1049400085D100207882B8752A2178543070A080F3
:104950002060B868B86194E7009800788128059BCA
:1049600004D0862850D0832800D09DE016460698B3
:10497000012856D162497944042538462A46FEF773
:10498000F5F8002800D1ABE05E49794404223846AE
:1049900043E00498079A1118105CBA7D90422FD119
:1049A0000898029A841A788ABA8A121A944200DB0A
:1049B000144635462540BA691018491C2A46FEF7A8
:1049C00038F80698012807D1788AB9690918788CCF
:1049D0002A46FFF737FB7884788A00197882B87DF9
:1049E000401CB875059B069C3FE0434804210172BA
:1049F00039770021B9750830B86179820598D7E612
:104A00003D48042101723DE0069801284CD116462C
:104A10003D497944042538462A46FEF7A7F8002880
:104A20005ED008980499451AE41CA54200DB25468F
:104A30002E40B86900993246FDF7FBFF069B012B1B
:104A400006D1B96900203246FFF7FCFA069B78844C
:104A50007D82BC827B770020B87538460E300422F8
:104A600039461C46FDF7E5FF059B788A012C01D1EC
:104A7000B98A13E0B98ACA1C90420FD91E48032193
:104A80000172042139770021B9750830B861798243
:104A9000BB82039E3A3640203E54EEE6884206D260
:104AA000002078633B77ECE613480372DAE60220D5
:104AB00038773846FFF7D6FCE3E60F4E042230463F
:104AC0003946FDF7B6FF3A35357100207071059A09
:104AD000B2710620F07108213046FFF7E1FCD0E604
:104AE00005480B2101723D770021B9750830B86186
:104AF00079820598B882CCE75C1F0020FFFF000098
:104B000027BD000017BD00008FBC000080B506491E
:104B100079440422FEF72AF80146012000220029E8
:104B200000D0104680BDC0468DBB000010B50324E8
:104B300004770024847582614482838240228154F8
:104B4000417FFFF7D5FC10BD10B54179090402790A
:104B500012060A43817909021143C2790A43017896
:104B6000090643781B040B4381780C021C43C1786F
:104B70002143104610BDB0B50C460546FFF7E4FFD3
:104B800003C428460830083CFFF7DEFFA060E16060
:104B900028461030FFF7D8FF20616161183528469C
:104BA000FFF7D2FFA061E161B0BDF0B588B0802908
:104BB00005D30020106050609060D06061E0002953
:104BC00008D040290DD18168C06800231160506071
:104BD000936055E00AC80AC20168406850601160DD
:104BE0004FE03F294FD8202304935F1A40235C1ADB
:104BF000C5682B460294E3400024002F079400DA96
:104C00001C460195059428C88D401C460697FC401B
:104C10002C430D46203D00931F46AF400838002D21
:104C200000DA274603978768029EF740049CA31B7F
:104C30000493019E3446049B9C403C43069FFE40E7
:104C4000002F00DA2646009B8B40002D079C00DADF
:104C50001C463319059C039E744118C283681C4688
:104C60008C40083A002D00DA0794C46807989060D9
:104C70008C401846F8402043AB40002D00DA034634
:104C8000D36008B0F0BD402993D00E46403E836803
:104C90001F46B7400D46603D0024002D079400DA02
:104CA0003C46C7681460B7406020411A1846C840A7
:104CB0003843AB40002D00DA0346536007987BE78A
:104CC000F0B595B014460E460546300A04D02021B2
:104CD000204602F0EDF86EE0002E0ED0802E19D1A5
:104CE0002869696903C4A869E969616020600020D6
:104CF00060612061E060A0605DE003CD03C42868CE
:104D0000696861602060A868E968E160A06028695E
:104D100069694DE07F2E50D810AA28463146FFF72A
:104D200044FF8020811B10350CAA284600F054F85F
:104D300012990E9A13980F9F5318784101210191EF
:104D4000002102939342019A039200D30391B84247
:104D500000D30A46B84200D00392109B0C9F119AD0
:104D600001920D9AFB18019F7A4101935F1C5141FA
:104D7000039B002B00D1114605910399002900D116
:104D8000019F049707900298069004AA10322846C3
:104D90003146FFF70AFF0498059903C4069807995E
:104DA0006160206008980999E160A0600A980B99F9
:104DB000083CE161A06115B0F0BD802E87D01035B0
:104DC000803E284631462246FFF7EFFE0020206154
:104DD0006061A061E061EEE7F0B587B0802905D39E
:104DE0000020106050609060D0607FE0002907D004
:104DF00040290DD10021516011600168406804E034
:104E00000AC80AC201684068083AD06091606DE043
:104E10003F294DD843680393CB400C46203C0026E5
:104E2000002C059600DA1E468568C3680493006866
:104E30005660202302935B1A039F3E4606939E40D2
:104E40000346CB403343E740002C00DA1F4617608F
:104E500040235E1A03460096B340069E002E059E30
:104E600000DA1E460196049E3346069FBB40CD40A5
:104E70001D433346E340002C00DA2B46039F009E7F
:104E8000B740029DAE1B0546F5403D43069EB0402F
:104E9000002E00DA2846049DCD402946002C019CB6
:104EA00000DA05911919059B43419160D3601DE01B
:104EB000402995D00D46403D43681F46EF400E46C1
:104EC000603E0024002E069400DA3C460068D46060
:104ED0006024611A1C468C40E8402043F340002EB9
:104EE00000DA0346069810605060936007B0F0BD8A
:104EF000F0B593B014460E460546300A04D0202182
:104F0000204601F0D5FF73E0002E0ED0802E1BD17D
:104F100003CD6161206128686968E161A0610020BA
:104F2000E060A0606060206062E003CD03C4286898
:104F3000696861602060A868E968E160A06028692C
:104F400069696161206153E07F2E43D802AA284637
:104F50003146FFF741FF284610300EAA3146FFF7D1
:104F60003BFF8020811B0AAA2846FFF71EFE1099EE
:104F70000C9B11980D9D5918684101260022019142
:104F80009942334600D31346A84200D31646A8429E
:104F900000D033460E9D0A9E0F990B9F76194F4104
:104FA000751C7A41002B00D13A460792002B00D1A4
:104FB000354606950990019E08960299039B0AC4FE
:104FC0000499059BE260083C224608322AC2E0614F
:104FD000A6610DE0802E92D0803E224610322846F7
:104FE0003146FFF7F9FE002020606060A060E060BD
:104FF00013B0F0BD70B50468031D0ECB1E460E4302
:10500000154625433543002D17D08020002D34D080
:1050100080205508DA072A436608CD0735432E4617
:105020001643E4075B08234349080C461C433443FA
:10503000401C002C2C46ECD11FE0046903461433BD
:105040000ECB084618432546154305430020002D86
:1050500013D000205508DA072A436608CD073543E8
:105060002E461643E4075B08234349080C461C43BD
:105070003443401C002C2C46ECD170BDF0B50246E8
:1050800009C91568546826465E402F464740374395
:105090000839002F1ED18868CB689468D5685D40B8
:1050A00044402C43002C22D108694B69156954698E
:1050B00026465E402F4647403743002F0AD1886975
:1050C0009569012300248542184600D82046C96905
:1050D000D26916E0012100228542084600D8104618
:1050E0009C4200D811469C4212D00846F0BD886808
:1050F0009568012300248542184600D82046C968D7
:10510000D2688A4200D823468A4201D01846F0BDB0
:10511000F0BD70B50D460446FFF7B0FF0146012013
:10512000002927D103CD0CCC4B4042401A4300202C
:10513000083C083D002A1DD1A968EA68A368E66812
:1051400056404B403343002B14D129696A692369C7
:10515000666956404B403343002B0BD1A869E9697F
:10516000A269E3694B4042401A4301200021002A12
:1051700000D0084670BDF0B592B010928468C36844
:105180008E68CD6832196B41012400271197B24215
:105190000F9400D3119CAB420F9E00D3119EAB42E3
:1051A00000D0344648C80F684D680838FB18754170
:1051B0005A1C2F46119E7741002C00D12F46109E7D
:1051C0007760002C00D11A460492326082688B68A6
:1051D000C568CC689A186C410692B2600794F46076
:1051E0008569C3698C69CA690E95651916460D9360
:1051F0005E410095A5420F9B119D00D32B46964220
:1052000000D30F950594039709920196964200D01A
:105210000F9B046946690A694D690B9217190C9531
:105220000F9675417A1C119E6E41002B00D12E46BF
:105230000F9D7540002B00D13A46234653402B4327
:105240000F46183705461835119510311030109D4E
:1052500008350295002B08970A9418D101220024E2
:105260000E9B009D9D42134600D223460D9D019E3C
:10527000AE4200D222460D9CA6422646059D00D095
:105280001346002B089F099B0F9C14D039E0012383
:10529000002594421A4600D82A4601950F9C3546AF
:1052A000B4420D9E00D8019BAC4200D01A46002AA1
:1052B000099B059D25D00022049B5F1C039E35465B
:1052C0005541069C079B1C40013400D03546109B7D
:1052D0005D60002C00D0049F1F60069B5B1C079C38
:1052E0005441029A18C2089F3D687B68119A16685B
:1052F0000E9656680A680B9249680C9101680A91EB
:1053000044680E9829185E4101220020A9421146E6
:1053100000D301469E420C9D00D302469E4200D01F
:1053200011460B9A0A9BD2186541531C684100290B
:1053300000D12846109C6061002900D113462361EA
:10534000119903C90CCF10184B41A061E36112B051
:10535000F0BDF0B592B011928A68CC688668C368D7
:10536000B71A1D46A54101220024B742164600D8AF
:1053700026469D42174600D8274610929D4200D0EF
:105380003E4628C984C808380839D31AAF410F945B
:10539000E4435A1E3D460E946541002E00D13D4621
:1053A000119F07957D60002E109C00D11A46029235
:1053B0003A608A688368CD68C6689A1AAE410592D9
:1053C000BA600696FE608D69CE698369C2690495EC
:1053D0005D1B17460A96B7410D9300959D422346E3
:1053E00000D80F9B974200D80F9C1092974200D094
:1053F00023460A694E690469456909920F94A21A05
:105400002C460896B541561E0C960E9E6E41002BFA
:1054100000D12E460E96354603946540002B0C9E17
:1054200000D1164632460F9C62402A430B46183381
:105430000B93034618330C9310311030119B083333
:105440000193002A16D1012200250D9B009C9C424D
:10545000134600D92B46109EB742039C00D92A461A
:10546000109DAF4200D01346002B119E079F049B56
:1054700013D03BE001220025A642134600D82B465C
:10548000039C0E9FA742119E00D82A46A74200D037
:105490001346002B079F049B28D00022D243029B77
:1054A0005B1E11933D465541059C069B1C43002CF9
:1054B00000D03D467560002C119B00D0029B3360EC
:1054C000059B5B1E069C5441019A18C20B9A1368F7
:1054D00052680A920C9C22680D92626810920A68C7
:1054E00009924968089101680F9144680D9FF81A64
:1054F000109D2B460A998B4101220021B84210468B
:1055000000D80846AB4200D80A46AB420F9B00D0F9
:105510001046099A9A1A089B9C41CB43511E63413D
:10552000002800D123467361002800D11146316163
:105530000B9903C90C9B0CCB101A8B41B061F36122
:1055400012B0F0BDF0B5B9B002920CC80026319689
:10555000309333963292026840683596349037968D
:10556000369205C9299628922B962A900A6848688F
:105570002D962C902F9607922E92F24308AC183459
:1055800030A818300390032005900196304609E0BA
:10559000CA0028AB9C580794049C241898183246DB
:1055A00040680591069004270494039D16460CCD8F
:1055B00007980699083D01F04FFC324603C4D0001D
:1055C0002D1818347F1E002FF0DC059B591E012B6F
:1055D000DEDA0C9810400F994018019D2946494188
:1055E0001646169A3240801869410A9A32400D9B3D
:1055F000D3182A465241179C1B196A41149C344007
:105600001B196A411E9C34401B196A410B9C089D62
:105610002C19159D6419129D64191F9D64191C9DF8
:105620006419269D6419591854410E9A3240029B00
:1056300012C31A60586039B0F0BDF0B5FFB08EB03B
:10564000169200247D947C940CC87F937E92819462
:1056500080940268436883938292859484948268DC
:10566000C3688793869289948894026940698B9075
:105670008A926D946C9408684A686F926E907194E7
:1056800070948868CA68739272907594749408696B
:105690004A69779276907994189478948869C96960
:1056A0007B917A902CAE30367CA830301790032056
:1056B000199000016CA908181B901898C443042580
:1056C0001A96179F38461B993246FFF73BFF200179
:1056D0003F1840366D1E002DF4DC1A9E36181999BD
:1056E000481E0029E4DC3A9815903B9814905B988A
:1056F00012905A9811904998139048981090479892
:105700001B9046980D9035980F9034981A903398C6
:105710000E9032980C904B980A904A9809903998BC
:10572000089038981790379B369819906B980B9083
:105730006A98079059980690589805905798049041
:10574000569803904598029044980190439F429D3B
:10575000319C309E2F982E9A18992B912A9129913D
:105760002891B218604152197841019C1219029C8B
:105770006041039C1219049C6041059C1219069C0F
:105780006041079C12190B9C60412590249227913F
:1057900026911F911E910899199A179885184B41C7
:1057A000099A54190A9F384619935F4101260B94B0
:1057B0009442344600D3189C03469F42304600D39F
:1057C00018989F4200D0044617988542324600D36D
:1057D000189A1998884230460F9D00D31898199B43
:1057E0008B4200D00246501C18994941002C00D130
:1057F00021461D91002C00D110461C9021970B983A
:105800002090189C2394229424A81CA919901791E5
:10581000169AFFF7B0FC2B942A94299428941A988E
:105820000C9942180E9969410D9CA3181B980F46BC
:1058300048410E93A342314600D318992B461B9C36
:10584000A042344600D3189C1B9DA84200D021469C
:105850001A9CA242324600D3189A9F42344600D383
:10586000189C9F4200D02246541C189D6D4100296F
:10587000139F00D11446002900D10D46611C1A91D6
:105880002A4618994A4110990E9B59184741994246
:105890001B96334600D3189B3E4687421B9F00D37E
:1058A000189F864200D03B46002B00D11A94002B53
:1058B00000D12A461A98431C144618984441119D59
:1058C000681812994E41A8421B9D00D3189D8E4224
:1058D00001D3189F1B978E4200D01B9D002D00D135
:1058E00014462594002D00D11A9B249327962690C8
:1058F000199D2846169C2146179E3246FFF73BFC11
:105900001821284601F0D4FA14982B9015982A9063
:10591000284631462246FFF72EFC7FB00EB0F0BD80
:10592000F0B5B7B01E4609920C46074616A81821D6
:1059300001F0BEFA002010901D90012013901C90E1
:105940003846FFF757FB05462046FFF753FB06CFC7
:105950000A921F920B911E9139687A6807922192E0
:1059600008912091B968FA680592239206912291D4
:1059700039697A690392259204912491281A149026
:1059800015942046083F3946FFF778FB1EAB1D46AD
:105990001835394618311C4610343A46103208334F
:1059A0000837012811D10B9830600A98706009CF30
:1059B000F360B06005CA7261306103C9F161B06122
:1059C0002021099801F074FAFFE0119412950193D7
:1059D00002962EAA159F3846149D2946FFF770F9A6
:1059E00016A826AA2946FFF76BF92F9802460A9DAA
:1059F0006A402E990B460B9E73401343002B324690
:105A000029D1309A1146089E714031980346079F6C
:105A10007B400B43002B2FD1329A1146069E7140DA
:105A200033980346059F7B400B43002B24D13499C8
:105A300001200022049B9942014600D81146359B63
:105A4000039FBB42029C099E00D81046BB4200D077
:105A5000014600291FE09142139A1146109B00D97C
:105A60001946A842099E00D91A46A84200D01146FC
:105A70000029029C11D01CE001210023B2420A46F9
:105A800000D81A46B842029C099E00D81946B8426E
:105A900000D00A46002A159F0BD001252EA82946C2
:105AA0000246FFF725FA26A82946159F0246FFF76A
:105AB0001FFA1EA83946FFF72CFB002701283D4698
:105AC0003B4638463A4639461497139763D126AE7B
:105AD000304618300B9034461034083600201390AE
