:02000004C0D06A
:1000000010B592B00FA81F4979440C2200F062F895
:1000100017480B900BA80F906C46204600F0C6F8CE
:100020002085144908420FD1684600F051F8092094
:1000300000F07AF810A00C90012000020D900FA89B
:100040000E900CA800F09CF800F064F86946884215
:1000500003D100F061F800F03BF800F015F86846B5
:10006000008D002802D1002012B010BD00F04DF824
:1000700044584E00FFFF0000457468657265756D59
:1000800000000000CC02000010B58CB001AC20468E
:1000900000F08CF820850D49084206D101A800F037
:1000A00017F80020C04300F055F800F033F801A91C
:1000B000884203D100F030F800F00AF801A8008D62
:1000C000002801D10CB010BD00F01FF8FFFF0000A8
:1000D00081467047B0B588420DD9002A14D0491E18
:1000E0005242401E0023DB431C4654430D5D055520
:1000F000521CF9D108E0002A06D000239CB20D5D05
:1001000005555B1C521EF9D1B0BD80B5014648466D
:1001100000F058F84846704700204946002900D0B2
:100120004869704701DF704780B582B0009007488A
:100130006946FFF7F7FF01AA11600549884201D11E
:1001400002B080BD0420FFF7E0FFC0463701006029
:10015000C601009080B582B0009007486946FFF75D
:10016000E1FF01AA11600549884201D102B080BDBA
:100170000420FFF7CAFFC046E16200606F62009092
:1001800080B582B0009007486946FFF7CBFF01AA0F
:1001900011600549884202D1019802B080BD042057
:1001A000FFF7B3FF0B65006015650090F0C0414696
:1001B0004A4653465C466D4676467EC02838F0C8AF
:1001C0000020704710307CC890469946A246AB4646
:1001D000B54608C82838F0C8081C00D101201847C7
:1001E0004E6F0059657300436F6E747261637420C3
:1001F0006461746100446973706C61792064617436
:1002000061004261636B0056657273696F6E003105
:100210002E322E31005573652077616C6C65742029
:10022000746F0076696577206163636F756E7473B0
:100230000053657474696E67730041626F75740072
:10024000517569742061707000436F6E6669726DDC
:1002500000616464726573730041646472657373F2
:10026000007472616E73616374696F6E00574152FE
:100270004E494E4700446174612070726573656E2B
:100280007400416D6F756E74004D6178696D756DA8
:100290002066656573005369676E20746865006D3C
:1002A000657373616765004D657373616765206889
:1002B0006173680073656C6563746F720053656C7D
:1002C0006563746F7200706172616D657465720050
:1002D00044584E2000000000D002D0C0ED000000C5
:1002E00016000000000000000000000000000000F8
:1002F00000000000000000000000000000000000FE
:04000005C0D0000166
:00000001FF
